{
	"data": {
		"bytecode": {
			"linkReferences": {},
			"object": "608060405234801561000f575f80fd5b50604051611ae8380380611ae883398181016040528101906100319190610258565b335f73ffffffffffffffffffffffffffffffffffffffff168173ffffffffffffffffffffffffffffffffffffffff16036100a2575f6040517f1e4fbdf700000000000000000000000000000000000000000000000000000000815260040161009991906102a5565b60405180910390fd5b6100b18161013960201b60201c565b508160015f6101000a81548173ffffffffffffffffffffffffffffffffffffffff021916908373ffffffffffffffffffffffffffffffffffffffff1602179055508060025f6101000a81548173ffffffffffffffffffffffffffffffffffffffff021916908373ffffffffffffffffffffffffffffffffffffffff16021790555050506102be565b5f805f9054906101000a900473ffffffffffffffffffffffffffffffffffffffff169050815f806101000a81548173ffffffffffffffffffffffffffffffffffffffff021916908373ffffffffffffffffffffffffffffffffffffffff1602179055508173ffffffffffffffffffffffffffffffffffffffff168173ffffffffffffffffffffffffffffffffffffffff167f8be0079c531659141344cd1fd0a4f28419497f9722a3daafe3b4186f6b6457e060405160405180910390a35050565b5f80fd5b5f73ffffffffffffffffffffffffffffffffffffffff82169050919050565b5f610227826101fe565b9050919050565b6102378161021d565b8114610241575f80fd5b50565b5f815190506102528161022e565b92915050565b5f806040838503121561026e5761026d6101fa565b5b5f61027b85828601610244565b925050602061028c85828601610244565b9150509250929050565b61029f8161021d565b82525050565b5f6020820190506102b85f830184610296565b92915050565b61181d806102cb5f395ff3fe608060405234801561000f575f80fd5b50600436106100a7575f3560e01c80638da5cb5b1161006f5780638da5cb5b14610152578063c9d27afe14610170578063d63843cd1461018c578063da35c664146101aa578063f2fde38b146101c8578063f96dae0a146101e4576100a7565b8063013cf08b146100ab5780630d61b519146100e057806343859632146100fc578063583cf3791461012c578063715018a614610148575b5f80fd5b6100c560048036038101906100c09190610c39565b610202565b6040516100d796959493929190610cfd565b60405180910390f35b6100fa60048036038101906100f59190610c39565b6103d8565b005b61011660048036038101906101119190610dcb565b61057e565b6040516101239190610e09565b60405180910390f35b61014660048036038101906101419190610f4e565b6105a8565b005b6101506106b7565b005b61015a6106ca565b6040516101679190611001565b60405180910390f35b61018a60048036038101906101859190611044565b6106f1565b005b6101946109d2565b6040516101a191906110dd565b60405180910390f35b6101b26109f7565b6040516101bf91906110f6565b60405180910390f35b6101e260048036038101906101dd919061110f565b6109fd565b005b6101ec610a81565b6040516101f9919061115a565b60405180910390f35b6003602052805f5260405f205f91509050805f018054610221906111a0565b80601f016020809104026020016040519081016040528092919081815260200182805461024d906111a0565b80156102985780601f1061026f57610100808354040283529160200191610298565b820191905f5260205f20905b81548152906001019060200180831161027b57829003601f168201915b5050505050908060010180546102ad906111a0565b80601f01602080910402602001604051908101604052809291908181526020018280546102d9906111a0565b80156103245780601f106102fb57610100808354040283529160200191610324565b820191905f5260205f20905b81548152906001019060200180831161030757829003601f168201915b505050505090806002018054610339906111a0565b80601f0160208091040260200160405190810160405280929190818152602001828054610365906111a0565b80156103b05780601f10610387576101008083540402835291602001916103b0565b820191905f5260205f20905b81548152906001019060200180831161039357829003601f168201915b505050505090806003015490806004015490806005015f9054906101000a900460ff16905086565b6103e0610aa6565b5f60035f8381526020019081526020015f2090505f1515816005015f9054906101000a900460ff1615151461044a576040517f08c379a00000000000000000000000000000000000000000000000000000000081526004016104419061121a565b60405180910390fd5b8060040154816003015411610494576040517f08c379a000000000000000000000000000000000000000000000000000000000815260040161048b90611282565b60405180910390fd5b60025f9054906101000a900473ffffffffffffffffffffffffffffffffffffffff1673ffffffffffffffffffffffffffffffffffffffff16631271acd3825f0183600101846002016040518463ffffffff1660e01b81526004016104fa93929190611333565b5f604051808303815f87803b158015610511575f80fd5b505af1158015610523573d5f803e3d5ffd5b505050506001816005015f6101000a81548160ff0219169083151502179055507f712ae1383f79ac853f8d882153778e0260ef8f03b504e2866e0593e04d2b291f8260405161057291906110f6565b60405180910390a15050565b6005602052815f5260405f20602052805f5260405f205f915091509054906101000a900460ff1681565b60045f8154809291906105ba906113aa565b91905055506040518060c001604052808481526020018381526020018281526020015f81526020015f81526020015f151581525060035f60045481526020019081526020015f205f820151815f0190816106149190611573565b50602082015181600101908161062a9190611573565b5060408201518160020190816106409190611573565b50606082015181600301556080820151816004015560a0820151816005015f6101000a81548160ff0219169083151502179055509050507f9c770c289ab5bf7e57cb1d23c8ceae993aea46eb64847072fd3d78ca60d3e432600454846040516106aa929190611642565b60405180910390a1505050565b6106bf610aa6565b6106c85f610b2d565b565b5f805f9054906101000a900473ffffffffffffffffffffffffffffffffffffffff16905090565b60055f8381526020019081526020015f205f3373ffffffffffffffffffffffffffffffffffffffff1673ffffffffffffffffffffffffffffffffffffffff1681526020019081526020015f205f9054906101000a900460ff161561078a576040517f08c379a0000000000000000000000000000000000000000000000000000000008152600401610781906116ba565b60405180910390fd5b5f151560035f8481526020019081526020015f206005015f9054906101000a900460ff161515146107f0576040517f08c379a00000000000000000000000000000000000000000000000000000000081526004016107e79061121a565b60405180910390fd5b5f60015f9054906101000a900473ffffffffffffffffffffffffffffffffffffffff1673ffffffffffffffffffffffffffffffffffffffff166370a08231336040518263ffffffff1660e01b815260040161084b9190611001565b602060405180830381865afa158015610866573d5f803e3d5ffd5b505050506040513d601f19601f8201168201806040525081019061088a91906116ec565b90505f81116108ce576040517f08c379a00000000000000000000000000000000000000000000000000000000081526004016108c590611761565b60405180910390fd5b8115610903578060035f8581526020019081526020015f206003015f8282546108f7919061177f565b9250508190555061092e565b8060035f8581526020019081526020015f206004015f828254610926919061177f565b925050819055505b600160055f8581526020019081526020015f205f3373ffffffffffffffffffffffffffffffffffffffff1673ffffffffffffffffffffffffffffffffffffffff1681526020019081526020015f205f6101000a81548160ff0219169083151502179055507f86abfce99b7dd908bec0169288797f85049ec73cbe046ed9de818fab3a497ae08383336040516109c5939291906117b2565b60405180910390a1505050565b60025f9054906101000a900473ffffffffffffffffffffffffffffffffffffffff1681565b60045481565b610a05610aa6565b5f73ffffffffffffffffffffffffffffffffffffffff168173ffffffffffffffffffffffffffffffffffffffff1603610a75575f6040517f1e4fbdf7000000000000000000000000000000000000000000000000000000008152600401610a6c9190611001565b60405180910390fd5b610a7e81610b2d565b50565b60015f9054906101000a900473ffffffffffffffffffffffffffffffffffffffff1681565b610aae610bee565b73ffffffffffffffffffffffffffffffffffffffff16610acc6106ca565b73ffffffffffffffffffffffffffffffffffffffff1614610b2b57610aef610bee565b6040517f118cdaa7000000000000000000000000000000000000000000000000000000008152600401610b229190611001565b60405180910390fd5b565b5f805f9054906101000a900473ffffffffffffffffffffffffffffffffffffffff169050815f806101000a81548173ffffffffffffffffffffffffffffffffffffffff021916908373ffffffffffffffffffffffffffffffffffffffff1602179055508173ffffffffffffffffffffffffffffffffffffffff168173ffffffffffffffffffffffffffffffffffffffff167f8be0079c531659141344cd1fd0a4f28419497f9722a3daafe3b4186f6b6457e060405160405180910390a35050565b5f33905090565b5f604051905090565b5f80fd5b5f80fd5b5f819050919050565b610c1881610c06565b8114610c22575f80fd5b50565b5f81359050610c3381610c0f565b92915050565b5f60208284031215610c4e57610c4d610bfe565b5b5f610c5b84828501610c25565b91505092915050565b5f81519050919050565b5f82825260208201905092915050565b8281835e5f83830152505050565b5f601f19601f8301169050919050565b5f610ca682610c64565b610cb08185610c6e565b9350610cc0818560208601610c7e565b610cc981610c8c565b840191505092915050565b610cdd81610c06565b82525050565b5f8115159050919050565b610cf781610ce3565b82525050565b5f60c0820190508181035f830152610d158189610c9c565b90508181036020830152610d298188610c9c565b90508181036040830152610d3d8187610c9c565b9050610d4c6060830186610cd4565b610d596080830185610cd4565b610d6660a0830184610cee565b979650505050505050565b5f73ffffffffffffffffffffffffffffffffffffffff82169050919050565b5f610d9a82610d71565b9050919050565b610daa81610d90565b8114610db4575f80fd5b50565b5f81359050610dc581610da1565b92915050565b5f8060408385031215610de157610de0610bfe565b5b5f610dee85828601610c25565b9250506020610dff85828601610db7565b9150509250929050565b5f602082019050610e1c5f830184610cee565b92915050565b5f80fd5b5f80fd5b7f4e487b71000000000000000000000000000000000000000000000000000000005f52604160045260245ffd5b610e6082610c8c565b810181811067ffffffffffffffff82111715610e7f57610e7e610e2a565b5b80604052505050565b5f610e91610bf5565b9050610e9d8282610e57565b919050565b5f67ffffffffffffffff821115610ebc57610ebb610e2a565b5b610ec582610c8c565b9050602081019050919050565b828183375f83830152505050565b5f610ef2610eed84610ea2565b610e88565b905082815260208101848484011115610f0e57610f0d610e26565b5b610f19848285610ed2565b509392505050565b5f82601f830112610f3557610f34610e22565b5b8135610f45848260208601610ee0565b91505092915050565b5f805f60608486031215610f6557610f64610bfe565b5b5f84013567ffffffffffffffff811115610f8257610f81610c02565b5b610f8e86828701610f21565b935050602084013567ffffffffffffffff811115610faf57610fae610c02565b5b610fbb86828701610f21565b925050604084013567ffffffffffffffff811115610fdc57610fdb610c02565b5b610fe886828701610f21565b9150509250925092565b610ffb81610d90565b82525050565b5f6020820190506110145f830184610ff2565b92915050565b61102381610ce3565b811461102d575f80fd5b50565b5f8135905061103e8161101a565b92915050565b5f806040838503121561105a57611059610bfe565b5b5f61106785828601610c25565b925050602061107885828601611030565b9150509250929050565b5f819050919050565b5f6110a56110a061109b84610d71565b611082565b610d71565b9050919050565b5f6110b68261108b565b9050919050565b5f6110c7826110ac565b9050919050565b6110d7816110bd565b82525050565b5f6020820190506110f05f8301846110ce565b92915050565b5f6020820190506111095f830184610cd4565b92915050565b5f6020828403121561112457611123610bfe565b5b5f61113184828501610db7565b91505092915050565b5f611144826110ac565b9050919050565b6111548161113a565b82525050565b5f60208201905061116d5f83018461114b565b92915050565b7f4e487b71000000000000000000000000000000000000000000000000000000005f52602260045260245ffd5b5f60028204905060018216806111b757607f821691505b6020821081036111ca576111c9611173565b5b50919050565b7f416c7265616479206578656375746564000000000000000000000000000000005f82015250565b5f611204601083610c6e565b915061120f826111d0565b602082019050919050565b5f6020820190508181035f830152611231816111f8565b9050919050565b7f4e6f7420656e6f75676820737570706f727400000000000000000000000000005f82015250565b5f61126c601283610c6e565b915061127782611238565b602082019050919050565b5f6020820190508181035f83015261129981611260565b9050919050565b5f819050815f5260205f209050919050565b5f81546112be816111a0565b6112c88186610c6e565b9450600182165f81146112e257600181146112f85761132a565b60ff19831686528115156020028601935061132a565b611301856112a0565b5f5b8381101561132257815481890152600182019150602081019050611303565b808801955050505b50505092915050565b5f6060820190508181035f83015261134b81866112b2565b9050818103602083015261135f81856112b2565b9050818103604083015261137381846112b2565b9050949350505050565b7f4e487b71000000000000000000000000000000000000000000000000000000005f52601160045260245ffd5b5f6113b482610c06565b91507fffffffffffffffffffffffffffffffffffffffffffffffffffffffffffffffff82036113e6576113e561137d565b5b600182019050919050565b5f6020601f8301049050919050565b5f82821b905092915050565b5f6008830261143b7fffffffffffffffffffffffffffffffffffffffffffffffffffffffffffffffff82611400565b6114458683611400565b95508019841693508086168417925050509392505050565b5f61147761147261146d84610c06565b611082565b610c06565b9050919050565b5f819050919050565b6114908361145d565b6114a461149c8261147e565b84845461140c565b825550505050565b5f90565b6114b86114ac565b6114c3818484611487565b505050565b5b818110156114e6576114db5f826114b0565b6001810190506114c9565b5050565b601f82111561152b576114fc816112a0565b611505846113f1565b81016020851015611514578190505b611528611520856113f1565b8301826114c8565b50505b505050565b5f82821c905092915050565b5f61154b5f1984600802611530565b1980831691505092915050565b5f611563838361153c565b9150826002028217905092915050565b61157c82610c64565b67ffffffffffffffff81111561159557611594610e2a565b5b61159f82546111a0565b6115aa8282856114ea565b5f60209050601f8311600181146115db575f84156115c9578287015190505b6115d38582611558565b86555061163a565b601f1984166115e9866112a0565b5f5b82811015611610578489015182556001820191506020850194506020810190506115eb565b8683101561162d5784890151611629601f89168261153c565b8355505b6001600288020188555050505b505050505050565b5f6040820190506116555f830185610cd4565b81810360208301526116678184610c9c565b90509392505050565b7f416c726561647920766f746564000000000000000000000000000000000000005f82015250565b5f6116a4600d83610c6e565b91506116af82611670565b602082019050919050565b5f6020820190508181035f8301526116d181611698565b9050919050565b5f815190506116e681610c0f565b92915050565b5f6020828403121561170157611700610bfe565b5b5f61170e848285016116d8565b91505092915050565b7f696e6375666973616e74652062616c6c616e63650000000000000000000000005f82015250565b5f61174b601483610c6e565b915061175682611717565b602082019050919050565b5f6020820190508181035f8301526117788161173f565b9050919050565b5f61178982610c06565b915061179483610c06565b92508282019050808211156117ac576117ab61137d565b5b92915050565b5f6060820190506117c55f830186610cd4565b6117d26020830185610cee565b6117df6040830184610ff2565b94935050505056fea2646970667358221220a69dc6a1f95d2805080d871f5ef235a5e9cacb61a4724e5e9b0c9bed3313054564736f6c634300081a0033",
			"opcodes": "PUSH1 0x80 PUSH1 0x40 MSTORE CALLVALUE DUP1 ISZERO PUSH2 0xF JUMPI PUSH0 DUP1 REVERT JUMPDEST POP PUSH1 0x40 MLOAD PUSH2 0x1AE8 CODESIZE SUB DUP1 PUSH2 0x1AE8 DUP4 CODECOPY DUP2 DUP2 ADD PUSH1 0x40 MSTORE DUP2 ADD SWAP1 PUSH2 0x31 SWAP2 SWAP1 PUSH2 0x258 JUMP JUMPDEST CALLER PUSH0 PUSH20 0xFFFFFFFFFFFFFFFFFFFFFFFFFFFFFFFFFFFFFFFF AND DUP2 PUSH20 0xFFFFFFFFFFFFFFFFFFFFFFFFFFFFFFFFFFFFFFFF AND SUB PUSH2 0xA2 JUMPI PUSH0 PUSH1 0x40 MLOAD PUSH32 0x1E4FBDF700000000000000000000000000000000000000000000000000000000 DUP2 MSTORE PUSH1 0x4 ADD PUSH2 0x99 SWAP2 SWAP1 PUSH2 0x2A5 JUMP JUMPDEST PUSH1 0x40 MLOAD DUP1 SWAP2 SUB SWAP1 REVERT JUMPDEST PUSH2 0xB1 DUP2 PUSH2 0x139 PUSH1 0x20 SHL PUSH1 0x20 SHR JUMP JUMPDEST POP DUP2 PUSH1 0x1 PUSH0 PUSH2 0x100 EXP DUP2 SLOAD DUP2 PUSH20 0xFFFFFFFFFFFFFFFFFFFFFFFFFFFFFFFFFFFFFFFF MUL NOT AND SWAP1 DUP4 PUSH20 0xFFFFFFFFFFFFFFFFFFFFFFFFFFFFFFFFFFFFFFFF AND MUL OR SWAP1 SSTORE POP DUP1 PUSH1 0x2 PUSH0 PUSH2 0x100 EXP DUP2 SLOAD DUP2 PUSH20 0xFFFFFFFFFFFFFFFFFFFFFFFFFFFFFFFFFFFFFFFF MUL NOT AND SWAP1 DUP4 PUSH20 0xFFFFFFFFFFFFFFFFFFFFFFFFFFFFFFFFFFFFFFFF AND MUL OR SWAP1 SSTORE POP POP POP PUSH2 0x2BE JUMP JUMPDEST PUSH0 DUP1 PUSH0 SWAP1 SLOAD SWAP1 PUSH2 0x100 EXP SWAP1 DIV PUSH20 0xFFFFFFFFFFFFFFFFFFFFFFFFFFFFFFFFFFFFFFFF AND SWAP1 POP DUP2 PUSH0 DUP1 PUSH2 0x100 EXP DUP2 SLOAD DUP2 PUSH20 0xFFFFFFFFFFFFFFFFFFFFFFFFFFFFFFFFFFFFFFFF MUL NOT AND SWAP1 DUP4 PUSH20 0xFFFFFFFFFFFFFFFFFFFFFFFFFFFFFFFFFFFFFFFF AND MUL OR SWAP1 SSTORE POP DUP2 PUSH20 0xFFFFFFFFFFFFFFFFFFFFFFFFFFFFFFFFFFFFFFFF AND DUP2 PUSH20 0xFFFFFFFFFFFFFFFFFFFFFFFFFFFFFFFFFFFFFFFF AND PUSH32 0x8BE0079C531659141344CD1FD0A4F28419497F9722A3DAAFE3B4186F6B6457E0 PUSH1 0x40 MLOAD PUSH1 0x40 MLOAD DUP1 SWAP2 SUB SWAP1 LOG3 POP POP JUMP JUMPDEST PUSH0 DUP1 REVERT JUMPDEST PUSH0 PUSH20 0xFFFFFFFFFFFFFFFFFFFFFFFFFFFFFFFFFFFFFFFF DUP3 AND SWAP1 POP SWAP2 SWAP1 POP JUMP JUMPDEST PUSH0 PUSH2 0x227 DUP3 PUSH2 0x1FE JUMP JUMPDEST SWAP1 POP SWAP2 SWAP1 POP JUMP JUMPDEST PUSH2 0x237 DUP2 PUSH2 0x21D JUMP JUMPDEST DUP2 EQ PUSH2 0x241 JUMPI PUSH0 DUP1 REVERT JUMPDEST POP JUMP JUMPDEST PUSH0 DUP2 MLOAD SWAP1 POP PUSH2 0x252 DUP2 PUSH2 0x22E JUMP JUMPDEST SWAP3 SWAP2 POP POP JUMP JUMPDEST PUSH0 DUP1 PUSH1 0x40 DUP4 DUP6 SUB SLT ISZERO PUSH2 0x26E JUMPI PUSH2 0x26D PUSH2 0x1FA JUMP JUMPDEST JUMPDEST PUSH0 PUSH2 0x27B DUP6 DUP3 DUP7 ADD PUSH2 0x244 JUMP JUMPDEST SWAP3 POP POP PUSH1 0x20 PUSH2 0x28C DUP6 DUP3 DUP7 ADD PUSH2 0x244 JUMP JUMPDEST SWAP2 POP POP SWAP3 POP SWAP3 SWAP1 POP JUMP JUMPDEST PUSH2 0x29F DUP2 PUSH2 0x21D JUMP JUMPDEST DUP3 MSTORE POP POP JUMP JUMPDEST PUSH0 PUSH1 0x20 DUP3 ADD SWAP1 POP PUSH2 0x2B8 PUSH0 DUP4 ADD DUP5 PUSH2 0x296 JUMP JUMPDEST SWAP3 SWAP2 POP POP JUMP JUMPDEST PUSH2 0x181D DUP1 PUSH2 0x2CB PUSH0 CODECOPY PUSH0 RETURN INVALID PUSH1 0x80 PUSH1 0x40 MSTORE CALLVALUE DUP1 ISZERO PUSH2 0xF JUMPI PUSH0 DUP1 REVERT JUMPDEST POP PUSH1 0x4 CALLDATASIZE LT PUSH2 0xA7 JUMPI PUSH0 CALLDATALOAD PUSH1 0xE0 SHR DUP1 PUSH4 0x8DA5CB5B GT PUSH2 0x6F JUMPI DUP1 PUSH4 0x8DA5CB5B EQ PUSH2 0x152 JUMPI DUP1 PUSH4 0xC9D27AFE EQ PUSH2 0x170 JUMPI DUP1 PUSH4 0xD63843CD EQ PUSH2 0x18C JUMPI DUP1 PUSH4 0xDA35C664 EQ PUSH2 0x1AA JUMPI DUP1 PUSH4 0xF2FDE38B EQ PUSH2 0x1C8 JUMPI DUP1 PUSH4 0xF96DAE0A EQ PUSH2 0x1E4 JUMPI PUSH2 0xA7 JUMP JUMPDEST DUP1 PUSH4 0x13CF08B EQ PUSH2 0xAB JUMPI DUP1 PUSH4 0xD61B519 EQ PUSH2 0xE0 JUMPI DUP1 PUSH4 0x43859632 EQ PUSH2 0xFC JUMPI DUP1 PUSH4 0x583CF379 EQ PUSH2 0x12C JUMPI DUP1 PUSH4 0x715018A6 EQ PUSH2 0x148 JUMPI JUMPDEST PUSH0 DUP1 REVERT JUMPDEST PUSH2 0xC5 PUSH1 0x4 DUP1 CALLDATASIZE SUB DUP2 ADD SWAP1 PUSH2 0xC0 SWAP2 SWAP1 PUSH2 0xC39 JUMP JUMPDEST PUSH2 0x202 JUMP JUMPDEST PUSH1 0x40 MLOAD PUSH2 0xD7 SWAP7 SWAP6 SWAP5 SWAP4 SWAP3 SWAP2 SWAP1 PUSH2 0xCFD JUMP JUMPDEST PUSH1 0x40 MLOAD DUP1 SWAP2 SUB SWAP1 RETURN JUMPDEST PUSH2 0xFA PUSH1 0x4 DUP1 CALLDATASIZE SUB DUP2 ADD SWAP1 PUSH2 0xF5 SWAP2 SWAP1 PUSH2 0xC39 JUMP JUMPDEST PUSH2 0x3D8 JUMP JUMPDEST STOP JUMPDEST PUSH2 0x116 PUSH1 0x4 DUP1 CALLDATASIZE SUB DUP2 ADD SWAP1 PUSH2 0x111 SWAP2 SWAP1 PUSH2 0xDCB JUMP JUMPDEST PUSH2 0x57E JUMP JUMPDEST PUSH1 0x40 MLOAD PUSH2 0x123 SWAP2 SWAP1 PUSH2 0xE09 JUMP JUMPDEST PUSH1 0x40 MLOAD DUP1 SWAP2 SUB SWAP1 RETURN JUMPDEST PUSH2 0x146 PUSH1 0x4 DUP1 CALLDATASIZE SUB DUP2 ADD SWAP1 PUSH2 0x141 SWAP2 SWAP1 PUSH2 0xF4E JUMP JUMPDEST PUSH2 0x5A8 JUMP JUMPDEST STOP JUMPDEST PUSH2 0x150 PUSH2 0x6B7 JUMP JUMPDEST STOP JUMPDEST PUSH2 0x15A PUSH2 0x6CA JUMP JUMPDEST PUSH1 0x40 MLOAD PUSH2 0x167 SWAP2 SWAP1 PUSH2 0x1001 JUMP JUMPDEST PUSH1 0x40 MLOAD DUP1 SWAP2 SUB SWAP1 RETURN JUMPDEST PUSH2 0x18A PUSH1 0x4 DUP1 CALLDATASIZE SUB DUP2 ADD SWAP1 PUSH2 0x185 SWAP2 SWAP1 PUSH2 0x1044 JUMP JUMPDEST PUSH2 0x6F1 JUMP JUMPDEST STOP JUMPDEST PUSH2 0x194 PUSH2 0x9D2 JUMP JUMPDEST PUSH1 0x40 MLOAD PUSH2 0x1A1 SWAP2 SWAP1 PUSH2 0x10DD JUMP JUMPDEST PUSH1 0x40 MLOAD DUP1 SWAP2 SUB SWAP1 RETURN JUMPDEST PUSH2 0x1B2 PUSH2 0x9F7 JUMP JUMPDEST PUSH1 0x40 MLOAD PUSH2 0x1BF SWAP2 SWAP1 PUSH2 0x10F6 JUMP JUMPDEST PUSH1 0x40 MLOAD DUP1 SWAP2 SUB SWAP1 RETURN JUMPDEST PUSH2 0x1E2 PUSH1 0x4 DUP1 CALLDATASIZE SUB DUP2 ADD SWAP1 PUSH2 0x1DD SWAP2 SWAP1 PUSH2 0x110F JUMP JUMPDEST PUSH2 0x9FD JUMP JUMPDEST STOP JUMPDEST PUSH2 0x1EC PUSH2 0xA81 JUMP JUMPDEST PUSH1 0x40 MLOAD PUSH2 0x1F9 SWAP2 SWAP1 PUSH2 0x115A JUMP JUMPDEST PUSH1 0x40 MLOAD DUP1 SWAP2 SUB SWAP1 RETURN JUMPDEST PUSH1 0x3 PUSH1 0x20 MSTORE DUP1 PUSH0 MSTORE PUSH1 0x40 PUSH0 KECCAK256 PUSH0 SWAP2 POP SWAP1 POP DUP1 PUSH0 ADD DUP1 SLOAD PUSH2 0x221 SWAP1 PUSH2 0x11A0 JUMP JUMPDEST DUP1 PUSH1 0x1F ADD PUSH1 0x20 DUP1 SWAP2 DIV MUL PUSH1 0x20 ADD PUSH1 0x40 MLOAD SWAP1 DUP2 ADD PUSH1 0x40 MSTORE DUP1 SWAP3 SWAP2 SWAP1 DUP2 DUP2 MSTORE PUSH1 0x20 ADD DUP3 DUP1 SLOAD PUSH2 0x24D SWAP1 PUSH2 0x11A0 JUMP JUMPDEST DUP1 ISZERO PUSH2 0x298 JUMPI DUP1 PUSH1 0x1F LT PUSH2 0x26F JUMPI PUSH2 0x100 DUP1 DUP4 SLOAD DIV MUL DUP4 MSTORE SWAP2 PUSH1 0x20 ADD SWAP2 PUSH2 0x298 JUMP JUMPDEST DUP3 ADD SWAP2 SWAP1 PUSH0 MSTORE PUSH1 0x20 PUSH0 KECCAK256 SWAP1 JUMPDEST DUP2 SLOAD DUP2 MSTORE SWAP1 PUSH1 0x1 ADD SWAP1 PUSH1 0x20 ADD DUP1 DUP4 GT PUSH2 0x27B JUMPI DUP3 SWAP1 SUB PUSH1 0x1F AND DUP3 ADD SWAP2 JUMPDEST POP POP POP POP POP SWAP1 DUP1 PUSH1 0x1 ADD DUP1 SLOAD PUSH2 0x2AD SWAP1 PUSH2 0x11A0 JUMP JUMPDEST DUP1 PUSH1 0x1F ADD PUSH1 0x20 DUP1 SWAP2 DIV MUL PUSH1 0x20 ADD PUSH1 0x40 MLOAD SWAP1 DUP2 ADD PUSH1 0x40 MSTORE DUP1 SWAP3 SWAP2 SWAP1 DUP2 DUP2 MSTORE PUSH1 0x20 ADD DUP3 DUP1 SLOAD PUSH2 0x2D9 SWAP1 PUSH2 0x11A0 JUMP JUMPDEST DUP1 ISZERO PUSH2 0x324 JUMPI DUP1 PUSH1 0x1F LT PUSH2 0x2FB JUMPI PUSH2 0x100 DUP1 DUP4 SLOAD DIV MUL DUP4 MSTORE SWAP2 PUSH1 0x20 ADD SWAP2 PUSH2 0x324 JUMP JUMPDEST DUP3 ADD SWAP2 SWAP1 PUSH0 MSTORE PUSH1 0x20 PUSH0 KECCAK256 SWAP1 JUMPDEST DUP2 SLOAD DUP2 MSTORE SWAP1 PUSH1 0x1 ADD SWAP1 PUSH1 0x20 ADD DUP1 DUP4 GT PUSH2 0x307 JUMPI DUP3 SWAP1 SUB PUSH1 0x1F AND DUP3 ADD SWAP2 JUMPDEST POP POP POP POP POP SWAP1 DUP1 PUSH1 0x2 ADD DUP1 SLOAD PUSH2 0x339 SWAP1 PUSH2 0x11A0 JUMP JUMPDEST DUP1 PUSH1 0x1F ADD PUSH1 0x20 DUP1 SWAP2 DIV MUL PUSH1 0x20 ADD PUSH1 0x40 MLOAD SWAP1 DUP2 ADD PUSH1 0x40 MSTORE DUP1 SWAP3 SWAP2 SWAP1 DUP2 DUP2 MSTORE PUSH1 0x20 ADD DUP3 DUP1 SLOAD PUSH2 0x365 SWAP1 PUSH2 0x11A0 JUMP JUMPDEST DUP1 ISZERO PUSH2 0x3B0 JUMPI DUP1 PUSH1 0x1F LT PUSH2 0x387 JUMPI PUSH2 0x100 DUP1 DUP4 SLOAD DIV MUL DUP4 MSTORE SWAP2 PUSH1 0x20 ADD SWAP2 PUSH2 0x3B0 JUMP JUMPDEST DUP3 ADD SWAP2 SWAP1 PUSH0 MSTORE PUSH1 0x20 PUSH0 KECCAK256 SWAP1 JUMPDEST DUP2 SLOAD DUP2 MSTORE SWAP1 PUSH1 0x1 ADD SWAP1 PUSH1 0x20 ADD DUP1 DUP4 GT PUSH2 0x393 JUMPI DUP3 SWAP1 SUB PUSH1 0x1F AND DUP3 ADD SWAP2 JUMPDEST POP POP POP POP POP SWAP1 DUP1 PUSH1 0x3 ADD SLOAD SWAP1 DUP1 PUSH1 0x4 ADD SLOAD SWAP1 DUP1 PUSH1 0x5 ADD PUSH0 SWAP1 SLOAD SWAP1 PUSH2 0x100 EXP SWAP1 DIV PUSH1 0xFF AND SWAP1 POP DUP7 JUMP JUMPDEST PUSH2 0x3E0 PUSH2 0xAA6 JUMP JUMPDEST PUSH0 PUSH1 0x3 PUSH0 DUP4 DUP2 MSTORE PUSH1 0x20 ADD SWAP1 DUP2 MSTORE PUSH1 0x20 ADD PUSH0 KECCAK256 SWAP1 POP PUSH0 ISZERO ISZERO DUP2 PUSH1 0x5 ADD PUSH0 SWAP1 SLOAD SWAP1 PUSH2 0x100 EXP SWAP1 DIV PUSH1 0xFF AND ISZERO ISZERO EQ PUSH2 0x44A JUMPI PUSH1 0x40 MLOAD PUSH32 0x8C379A000000000000000000000000000000000000000000000000000000000 DUP2 MSTORE PUSH1 0x4 ADD PUSH2 0x441 SWAP1 PUSH2 0x121A JUMP JUMPDEST PUSH1 0x40 MLOAD DUP1 SWAP2 SUB SWAP1 REVERT JUMPDEST DUP1 PUSH1 0x4 ADD SLOAD DUP2 PUSH1 0x3 ADD SLOAD GT PUSH2 0x494 JUMPI PUSH1 0x40 MLOAD PUSH32 0x8C379A000000000000000000000000000000000000000000000000000000000 DUP2 MSTORE PUSH1 0x4 ADD PUSH2 0x48B SWAP1 PUSH2 0x1282 JUMP JUMPDEST PUSH1 0x40 MLOAD DUP1 SWAP2 SUB SWAP1 REVERT JUMPDEST PUSH1 0x2 PUSH0 SWAP1 SLOAD SWAP1 PUSH2 0x100 EXP SWAP1 DIV PUSH20 0xFFFFFFFFFFFFFFFFFFFFFFFFFFFFFFFFFFFFFFFF AND PUSH20 0xFFFFFFFFFFFFFFFFFFFFFFFFFFFFFFFFFFFFFFFF AND PUSH4 0x1271ACD3 DUP3 PUSH0 ADD DUP4 PUSH1 0x1 ADD DUP5 PUSH1 0x2 ADD PUSH1 0x40 MLOAD DUP5 PUSH4 0xFFFFFFFF AND PUSH1 0xE0 SHL DUP2 MSTORE PUSH1 0x4 ADD PUSH2 0x4FA SWAP4 SWAP3 SWAP2 SWAP1 PUSH2 0x1333 JUMP JUMPDEST PUSH0 PUSH1 0x40 MLOAD DUP1 DUP4 SUB DUP2 PUSH0 DUP8 DUP1 EXTCODESIZE ISZERO DUP1 ISZERO PUSH2 0x511 JUMPI PUSH0 DUP1 REVERT JUMPDEST POP GAS CALL ISZERO DUP1 ISZERO PUSH2 0x523 JUMPI RETURNDATASIZE PUSH0 DUP1 RETURNDATACOPY RETURNDATASIZE PUSH0 REVERT JUMPDEST POP POP POP POP PUSH1 0x1 DUP2 PUSH1 0x5 ADD PUSH0 PUSH2 0x100 EXP DUP2 SLOAD DUP2 PUSH1 0xFF MUL NOT AND SWAP1 DUP4 ISZERO ISZERO MUL OR SWAP1 SSTORE POP PUSH32 0x712AE1383F79AC853F8D882153778E0260EF8F03B504E2866E0593E04D2B291F DUP3 PUSH1 0x40 MLOAD PUSH2 0x572 SWAP2 SWAP1 PUSH2 0x10F6 JUMP JUMPDEST PUSH1 0x40 MLOAD DUP1 SWAP2 SUB SWAP1 LOG1 POP POP JUMP JUMPDEST PUSH1 0x5 PUSH1 0x20 MSTORE DUP2 PUSH0 MSTORE PUSH1 0x40 PUSH0 KECCAK256 PUSH1 0x20 MSTORE DUP1 PUSH0 MSTORE PUSH1 0x40 PUSH0 KECCAK256 PUSH0 SWAP2 POP SWAP2 POP SWAP1 SLOAD SWAP1 PUSH2 0x100 EXP SWAP1 DIV PUSH1 0xFF AND DUP2 JUMP JUMPDEST PUSH1 0x4 PUSH0 DUP2 SLOAD DUP1 SWAP3 SWAP2 SWAP1 PUSH2 0x5BA SWAP1 PUSH2 0x13AA JUMP JUMPDEST SWAP2 SWAP1 POP SSTORE POP PUSH1 0x40 MLOAD DUP1 PUSH1 0xC0 ADD PUSH1 0x40 MSTORE DUP1 DUP5 DUP2 MSTORE PUSH1 0x20 ADD DUP4 DUP2 MSTORE PUSH1 0x20 ADD DUP3 DUP2 MSTORE PUSH1 0x20 ADD PUSH0 DUP2 MSTORE PUSH1 0x20 ADD PUSH0 DUP2 MSTORE PUSH1 0x20 ADD PUSH0 ISZERO ISZERO DUP2 MSTORE POP PUSH1 0x3 PUSH0 PUSH1 0x4 SLOAD DUP2 MSTORE PUSH1 0x20 ADD SWAP1 DUP2 MSTORE PUSH1 0x20 ADD PUSH0 KECCAK256 PUSH0 DUP3 ADD MLOAD DUP2 PUSH0 ADD SWAP1 DUP2 PUSH2 0x614 SWAP2 SWAP1 PUSH2 0x1573 JUMP JUMPDEST POP PUSH1 0x20 DUP3 ADD MLOAD DUP2 PUSH1 0x1 ADD SWAP1 DUP2 PUSH2 0x62A SWAP2 SWAP1 PUSH2 0x1573 JUMP JUMPDEST POP PUSH1 0x40 DUP3 ADD MLOAD DUP2 PUSH1 0x2 ADD SWAP1 DUP2 PUSH2 0x640 SWAP2 SWAP1 PUSH2 0x1573 JUMP JUMPDEST POP PUSH1 0x60 DUP3 ADD MLOAD DUP2 PUSH1 0x3 ADD SSTORE PUSH1 0x80 DUP3 ADD MLOAD DUP2 PUSH1 0x4 ADD SSTORE PUSH1 0xA0 DUP3 ADD MLOAD DUP2 PUSH1 0x5 ADD PUSH0 PUSH2 0x100 EXP DUP2 SLOAD DUP2 PUSH1 0xFF MUL NOT AND SWAP1 DUP4 ISZERO ISZERO MUL OR SWAP1 SSTORE POP SWAP1 POP POP PUSH32 0x9C770C289AB5BF7E57CB1D23C8CEAE993AEA46EB64847072FD3D78CA60D3E432 PUSH1 0x4 SLOAD DUP5 PUSH1 0x40 MLOAD PUSH2 0x6AA SWAP3 SWAP2 SWAP1 PUSH2 0x1642 JUMP JUMPDEST PUSH1 0x40 MLOAD DUP1 SWAP2 SUB SWAP1 LOG1 POP POP POP JUMP JUMPDEST PUSH2 0x6BF PUSH2 0xAA6 JUMP JUMPDEST PUSH2 0x6C8 PUSH0 PUSH2 0xB2D JUMP JUMPDEST JUMP JUMPDEST PUSH0 DUP1 PUSH0 SWAP1 SLOAD SWAP1 PUSH2 0x100 EXP SWAP1 DIV PUSH20 0xFFFFFFFFFFFFFFFFFFFFFFFFFFFFFFFFFFFFFFFF AND SWAP1 POP SWAP1 JUMP JUMPDEST PUSH1 0x5 PUSH0 DUP4 DUP2 MSTORE PUSH1 0x20 ADD SWAP1 DUP2 MSTORE PUSH1 0x20 ADD PUSH0 KECCAK256 PUSH0 CALLER PUSH20 0xFFFFFFFFFFFFFFFFFFFFFFFFFFFFFFFFFFFFFFFF AND PUSH20 0xFFFFFFFFFFFFFFFFFFFFFFFFFFFFFFFFFFFFFFFF AND DUP2 MSTORE PUSH1 0x20 ADD SWAP1 DUP2 MSTORE PUSH1 0x20 ADD PUSH0 KECCAK256 PUSH0 SWAP1 SLOAD SWAP1 PUSH2 0x100 EXP SWAP1 DIV PUSH1 0xFF AND ISZERO PUSH2 0x78A JUMPI PUSH1 0x40 MLOAD PUSH32 0x8C379A000000000000000000000000000000000000000000000000000000000 DUP2 MSTORE PUSH1 0x4 ADD PUSH2 0x781 SWAP1 PUSH2 0x16BA JUMP JUMPDEST PUSH1 0x40 MLOAD DUP1 SWAP2 SUB SWAP1 REVERT JUMPDEST PUSH0 ISZERO ISZERO PUSH1 0x3 PUSH0 DUP5 DUP2 MSTORE PUSH1 0x20 ADD SWAP1 DUP2 MSTORE PUSH1 0x20 ADD PUSH0 KECCAK256 PUSH1 0x5 ADD PUSH0 SWAP1 SLOAD SWAP1 PUSH2 0x100 EXP SWAP1 DIV PUSH1 0xFF AND ISZERO ISZERO EQ PUSH2 0x7F0 JUMPI PUSH1 0x40 MLOAD PUSH32 0x8C379A000000000000000000000000000000000000000000000000000000000 DUP2 MSTORE PUSH1 0x4 ADD PUSH2 0x7E7 SWAP1 PUSH2 0x121A JUMP JUMPDEST PUSH1 0x40 MLOAD DUP1 SWAP2 SUB SWAP1 REVERT JUMPDEST PUSH0 PUSH1 0x1 PUSH0 SWAP1 SLOAD SWAP1 PUSH2 0x100 EXP SWAP1 DIV PUSH20 0xFFFFFFFFFFFFFFFFFFFFFFFFFFFFFFFFFFFFFFFF AND PUSH20 0xFFFFFFFFFFFFFFFFFFFFFFFFFFFFFFFFFFFFFFFF AND PUSH4 0x70A08231 CALLER PUSH1 0x40 MLOAD DUP3 PUSH4 0xFFFFFFFF AND PUSH1 0xE0 SHL DUP2 MSTORE PUSH1 0x4 ADD PUSH2 0x84B SWAP2 SWAP1 PUSH2 0x1001 JUMP JUMPDEST PUSH1 0x20 PUSH1 0x40 MLOAD DUP1 DUP4 SUB DUP2 DUP7 GAS STATICCALL ISZERO DUP1 ISZERO PUSH2 0x866 JUMPI RETURNDATASIZE PUSH0 DUP1 RETURNDATACOPY RETURNDATASIZE PUSH0 REVERT JUMPDEST POP POP POP POP PUSH1 0x40 MLOAD RETURNDATASIZE PUSH1 0x1F NOT PUSH1 0x1F DUP3 ADD AND DUP3 ADD DUP1 PUSH1 0x40 MSTORE POP DUP2 ADD SWAP1 PUSH2 0x88A SWAP2 SWAP1 PUSH2 0x16EC JUMP JUMPDEST SWAP1 POP PUSH0 DUP2 GT PUSH2 0x8CE JUMPI PUSH1 0x40 MLOAD PUSH32 0x8C379A000000000000000000000000000000000000000000000000000000000 DUP2 MSTORE PUSH1 0x4 ADD PUSH2 0x8C5 SWAP1 PUSH2 0x1761 JUMP JUMPDEST PUSH1 0x40 MLOAD DUP1 SWAP2 SUB SWAP1 REVERT JUMPDEST DUP2 ISZERO PUSH2 0x903 JUMPI DUP1 PUSH1 0x3 PUSH0 DUP6 DUP2 MSTORE PUSH1 0x20 ADD SWAP1 DUP2 MSTORE PUSH1 0x20 ADD PUSH0 KECCAK256 PUSH1 0x3 ADD PUSH0 DUP3 DUP3 SLOAD PUSH2 0x8F7 SWAP2 SWAP1 PUSH2 0x177F JUMP JUMPDEST SWAP3 POP POP DUP2 SWAP1 SSTORE POP PUSH2 0x92E JUMP JUMPDEST DUP1 PUSH1 0x3 PUSH0 DUP6 DUP2 MSTORE PUSH1 0x20 ADD SWAP1 DUP2 MSTORE PUSH1 0x20 ADD PUSH0 KECCAK256 PUSH1 0x4 ADD PUSH0 DUP3 DUP3 SLOAD PUSH2 0x926 SWAP2 SWAP1 PUSH2 0x177F JUMP JUMPDEST SWAP3 POP POP DUP2 SWAP1 SSTORE POP JUMPDEST PUSH1 0x1 PUSH1 0x5 PUSH0 DUP6 DUP2 MSTORE PUSH1 0x20 ADD SWAP1 DUP2 MSTORE PUSH1 0x20 ADD PUSH0 KECCAK256 PUSH0 CALLER PUSH20 0xFFFFFFFFFFFFFFFFFFFFFFFFFFFFFFFFFFFFFFFF AND PUSH20 0xFFFFFFFFFFFFFFFFFFFFFFFFFFFFFFFFFFFFFFFF AND DUP2 MSTORE PUSH1 0x20 ADD SWAP1 DUP2 MSTORE PUSH1 0x20 ADD PUSH0 KECCAK256 PUSH0 PUSH2 0x100 EXP DUP2 SLOAD DUP2 PUSH1 0xFF MUL NOT AND SWAP1 DUP4 ISZERO ISZERO MUL OR SWAP1 SSTORE POP PUSH32 0x86ABFCE99B7DD908BEC0169288797F85049EC73CBE046ED9DE818FAB3A497AE0 DUP4 DUP4 CALLER PUSH1 0x40 MLOAD PUSH2 0x9C5 SWAP4 SWAP3 SWAP2 SWAP1 PUSH2 0x17B2 JUMP JUMPDEST PUSH1 0x40 MLOAD DUP1 SWAP2 SUB SWAP1 LOG1 POP POP POP JUMP JUMPDEST PUSH1 0x2 PUSH0 SWAP1 SLOAD SWAP1 PUSH2 0x100 EXP SWAP1 DIV PUSH20 0xFFFFFFFFFFFFFFFFFFFFFFFFFFFFFFFFFFFFFFFF AND DUP2 JUMP JUMPDEST PUSH1 0x4 SLOAD DUP2 JUMP JUMPDEST PUSH2 0xA05 PUSH2 0xAA6 JUMP JUMPDEST PUSH0 PUSH20 0xFFFFFFFFFFFFFFFFFFFFFFFFFFFFFFFFFFFFFFFF AND DUP2 PUSH20 0xFFFFFFFFFFFFFFFFFFFFFFFFFFFFFFFFFFFFFFFF AND SUB PUSH2 0xA75 JUMPI PUSH0 PUSH1 0x40 MLOAD PUSH32 0x1E4FBDF700000000000000000000000000000000000000000000000000000000 DUP2 MSTORE PUSH1 0x4 ADD PUSH2 0xA6C SWAP2 SWAP1 PUSH2 0x1001 JUMP JUMPDEST PUSH1 0x40 MLOAD DUP1 SWAP2 SUB SWAP1 REVERT JUMPDEST PUSH2 0xA7E DUP2 PUSH2 0xB2D JUMP JUMPDEST POP JUMP JUMPDEST PUSH1 0x1 PUSH0 SWAP1 SLOAD SWAP1 PUSH2 0x100 EXP SWAP1 DIV PUSH20 0xFFFFFFFFFFFFFFFFFFFFFFFFFFFFFFFFFFFFFFFF AND DUP2 JUMP JUMPDEST PUSH2 0xAAE PUSH2 0xBEE JUMP JUMPDEST PUSH20 0xFFFFFFFFFFFFFFFFFFFFFFFFFFFFFFFFFFFFFFFF AND PUSH2 0xACC PUSH2 0x6CA JUMP JUMPDEST PUSH20 0xFFFFFFFFFFFFFFFFFFFFFFFFFFFFFFFFFFFFFFFF AND EQ PUSH2 0xB2B JUMPI PUSH2 0xAEF PUSH2 0xBEE JUMP JUMPDEST PUSH1 0x40 MLOAD PUSH32 0x118CDAA700000000000000000000000000000000000000000000000000000000 DUP2 MSTORE PUSH1 0x4 ADD PUSH2 0xB22 SWAP2 SWAP1 PUSH2 0x1001 JUMP JUMPDEST PUSH1 0x40 MLOAD DUP1 SWAP2 SUB SWAP1 REVERT JUMPDEST JUMP JUMPDEST PUSH0 DUP1 PUSH0 SWAP1 SLOAD SWAP1 PUSH2 0x100 EXP SWAP1 DIV PUSH20 0xFFFFFFFFFFFFFFFFFFFFFFFFFFFFFFFFFFFFFFFF AND SWAP1 POP DUP2 PUSH0 DUP1 PUSH2 0x100 EXP DUP2 SLOAD DUP2 PUSH20 0xFFFFFFFFFFFFFFFFFFFFFFFFFFFFFFFFFFFFFFFF MUL NOT AND SWAP1 DUP4 PUSH20 0xFFFFFFFFFFFFFFFFFFFFFFFFFFFFFFFFFFFFFFFF AND MUL OR SWAP1 SSTORE POP DUP2 PUSH20 0xFFFFFFFFFFFFFFFFFFFFFFFFFFFFFFFFFFFFFFFF AND DUP2 PUSH20 0xFFFFFFFFFFFFFFFFFFFFFFFFFFFFFFFFFFFFFFFF AND PUSH32 0x8BE0079C531659141344CD1FD0A4F28419497F9722A3DAAFE3B4186F6B6457E0 PUSH1 0x40 MLOAD PUSH1 0x40 MLOAD DUP1 SWAP2 SUB SWAP1 LOG3 POP POP JUMP JUMPDEST PUSH0 CALLER SWAP1 POP SWAP1 JUMP JUMPDEST PUSH0 PUSH1 0x40 MLOAD SWAP1 POP SWAP1 JUMP JUMPDEST PUSH0 DUP1 REVERT JUMPDEST PUSH0 DUP1 REVERT JUMPDEST PUSH0 DUP2 SWAP1 POP SWAP2 SWAP1 POP JUMP JUMPDEST PUSH2 0xC18 DUP2 PUSH2 0xC06 JUMP JUMPDEST DUP2 EQ PUSH2 0xC22 JUMPI PUSH0 DUP1 REVERT JUMPDEST POP JUMP JUMPDEST PUSH0 DUP2 CALLDATALOAD SWAP1 POP PUSH2 0xC33 DUP2 PUSH2 0xC0F JUMP JUMPDEST SWAP3 SWAP2 POP POP JUMP JUMPDEST PUSH0 PUSH1 0x20 DUP3 DUP5 SUB SLT ISZERO PUSH2 0xC4E JUMPI PUSH2 0xC4D PUSH2 0xBFE JUMP JUMPDEST JUMPDEST PUSH0 PUSH2 0xC5B DUP5 DUP3 DUP6 ADD PUSH2 0xC25 JUMP JUMPDEST SWAP2 POP POP SWAP3 SWAP2 POP POP JUMP JUMPDEST PUSH0 DUP2 MLOAD SWAP1 POP SWAP2 SWAP1 POP JUMP JUMPDEST PUSH0 DUP3 DUP3 MSTORE PUSH1 0x20 DUP3 ADD SWAP1 POP SWAP3 SWAP2 POP POP JUMP JUMPDEST DUP3 DUP2 DUP4 MCOPY PUSH0 DUP4 DUP4 ADD MSTORE POP POP POP JUMP JUMPDEST PUSH0 PUSH1 0x1F NOT PUSH1 0x1F DUP4 ADD AND SWAP1 POP SWAP2 SWAP1 POP JUMP JUMPDEST PUSH0 PUSH2 0xCA6 DUP3 PUSH2 0xC64 JUMP JUMPDEST PUSH2 0xCB0 DUP2 DUP6 PUSH2 0xC6E JUMP JUMPDEST SWAP4 POP PUSH2 0xCC0 DUP2 DUP6 PUSH1 0x20 DUP7 ADD PUSH2 0xC7E JUMP JUMPDEST PUSH2 0xCC9 DUP2 PUSH2 0xC8C JUMP JUMPDEST DUP5 ADD SWAP2 POP POP SWAP3 SWAP2 POP POP JUMP JUMPDEST PUSH2 0xCDD DUP2 PUSH2 0xC06 JUMP JUMPDEST DUP3 MSTORE POP POP JUMP JUMPDEST PUSH0 DUP2 ISZERO ISZERO SWAP1 POP SWAP2 SWAP1 POP JUMP JUMPDEST PUSH2 0xCF7 DUP2 PUSH2 0xCE3 JUMP JUMPDEST DUP3 MSTORE POP POP JUMP JUMPDEST PUSH0 PUSH1 0xC0 DUP3 ADD SWAP1 POP DUP2 DUP2 SUB PUSH0 DUP4 ADD MSTORE PUSH2 0xD15 DUP2 DUP10 PUSH2 0xC9C JUMP JUMPDEST SWAP1 POP DUP2 DUP2 SUB PUSH1 0x20 DUP4 ADD MSTORE PUSH2 0xD29 DUP2 DUP9 PUSH2 0xC9C JUMP JUMPDEST SWAP1 POP DUP2 DUP2 SUB PUSH1 0x40 DUP4 ADD MSTORE PUSH2 0xD3D DUP2 DUP8 PUSH2 0xC9C JUMP JUMPDEST SWAP1 POP PUSH2 0xD4C PUSH1 0x60 DUP4 ADD DUP7 PUSH2 0xCD4 JUMP JUMPDEST PUSH2 0xD59 PUSH1 0x80 DUP4 ADD DUP6 PUSH2 0xCD4 JUMP JUMPDEST PUSH2 0xD66 PUSH1 0xA0 DUP4 ADD DUP5 PUSH2 0xCEE JUMP JUMPDEST SWAP8 SWAP7 POP POP POP POP POP POP POP JUMP JUMPDEST PUSH0 PUSH20 0xFFFFFFFFFFFFFFFFFFFFFFFFFFFFFFFFFFFFFFFF DUP3 AND SWAP1 POP SWAP2 SWAP1 POP JUMP JUMPDEST PUSH0 PUSH2 0xD9A DUP3 PUSH2 0xD71 JUMP JUMPDEST SWAP1 POP SWAP2 SWAP1 POP JUMP JUMPDEST PUSH2 0xDAA DUP2 PUSH2 0xD90 JUMP JUMPDEST DUP2 EQ PUSH2 0xDB4 JUMPI PUSH0 DUP1 REVERT JUMPDEST POP JUMP JUMPDEST PUSH0 DUP2 CALLDATALOAD SWAP1 POP PUSH2 0xDC5 DUP2 PUSH2 0xDA1 JUMP JUMPDEST SWAP3 SWAP2 POP POP JUMP JUMPDEST PUSH0 DUP1 PUSH1 0x40 DUP4 DUP6 SUB SLT ISZERO PUSH2 0xDE1 JUMPI PUSH2 0xDE0 PUSH2 0xBFE JUMP JUMPDEST JUMPDEST PUSH0 PUSH2 0xDEE DUP6 DUP3 DUP7 ADD PUSH2 0xC25 JUMP JUMPDEST SWAP3 POP POP PUSH1 0x20 PUSH2 0xDFF DUP6 DUP3 DUP7 ADD PUSH2 0xDB7 JUMP JUMPDEST SWAP2 POP POP SWAP3 POP SWAP3 SWAP1 POP JUMP JUMPDEST PUSH0 PUSH1 0x20 DUP3 ADD SWAP1 POP PUSH2 0xE1C PUSH0 DUP4 ADD DUP5 PUSH2 0xCEE JUMP JUMPDEST SWAP3 SWAP2 POP POP JUMP JUMPDEST PUSH0 DUP1 REVERT JUMPDEST PUSH0 DUP1 REVERT JUMPDEST PUSH32 0x4E487B7100000000000000000000000000000000000000000000000000000000 PUSH0 MSTORE PUSH1 0x41 PUSH1 0x4 MSTORE PUSH1 0x24 PUSH0 REVERT JUMPDEST PUSH2 0xE60 DUP3 PUSH2 0xC8C JUMP JUMPDEST DUP2 ADD DUP2 DUP2 LT PUSH8 0xFFFFFFFFFFFFFFFF DUP3 GT OR ISZERO PUSH2 0xE7F JUMPI PUSH2 0xE7E PUSH2 0xE2A JUMP JUMPDEST JUMPDEST DUP1 PUSH1 0x40 MSTORE POP POP POP JUMP JUMPDEST PUSH0 PUSH2 0xE91 PUSH2 0xBF5 JUMP JUMPDEST SWAP1 POP PUSH2 0xE9D DUP3 DUP3 PUSH2 0xE57 JUMP JUMPDEST SWAP2 SWAP1 POP JUMP JUMPDEST PUSH0 PUSH8 0xFFFFFFFFFFFFFFFF DUP3 GT ISZERO PUSH2 0xEBC JUMPI PUSH2 0xEBB PUSH2 0xE2A JUMP JUMPDEST JUMPDEST PUSH2 0xEC5 DUP3 PUSH2 0xC8C JUMP JUMPDEST SWAP1 POP PUSH1 0x20 DUP2 ADD SWAP1 POP SWAP2 SWAP1 POP JUMP JUMPDEST DUP3 DUP2 DUP4 CALLDATACOPY PUSH0 DUP4 DUP4 ADD MSTORE POP POP POP JUMP JUMPDEST PUSH0 PUSH2 0xEF2 PUSH2 0xEED DUP5 PUSH2 0xEA2 JUMP JUMPDEST PUSH2 0xE88 JUMP JUMPDEST SWAP1 POP DUP3 DUP2 MSTORE PUSH1 0x20 DUP2 ADD DUP5 DUP5 DUP5 ADD GT ISZERO PUSH2 0xF0E JUMPI PUSH2 0xF0D PUSH2 0xE26 JUMP JUMPDEST JUMPDEST PUSH2 0xF19 DUP5 DUP3 DUP6 PUSH2 0xED2 JUMP JUMPDEST POP SWAP4 SWAP3 POP POP POP JUMP JUMPDEST PUSH0 DUP3 PUSH1 0x1F DUP4 ADD SLT PUSH2 0xF35 JUMPI PUSH2 0xF34 PUSH2 0xE22 JUMP JUMPDEST JUMPDEST DUP2 CALLDATALOAD PUSH2 0xF45 DUP5 DUP3 PUSH1 0x20 DUP7 ADD PUSH2 0xEE0 JUMP JUMPDEST SWAP2 POP POP SWAP3 SWAP2 POP POP JUMP JUMPDEST PUSH0 DUP1 PUSH0 PUSH1 0x60 DUP5 DUP7 SUB SLT ISZERO PUSH2 0xF65 JUMPI PUSH2 0xF64 PUSH2 0xBFE JUMP JUMPDEST JUMPDEST PUSH0 DUP5 ADD CALLDATALOAD PUSH8 0xFFFFFFFFFFFFFFFF DUP2 GT ISZERO PUSH2 0xF82 JUMPI PUSH2 0xF81 PUSH2 0xC02 JUMP JUMPDEST JUMPDEST PUSH2 0xF8E DUP7 DUP3 DUP8 ADD PUSH2 0xF21 JUMP JUMPDEST SWAP4 POP POP PUSH1 0x20 DUP5 ADD CALLDATALOAD PUSH8 0xFFFFFFFFFFFFFFFF DUP2 GT ISZERO PUSH2 0xFAF JUMPI PUSH2 0xFAE PUSH2 0xC02 JUMP JUMPDEST JUMPDEST PUSH2 0xFBB DUP7 DUP3 DUP8 ADD PUSH2 0xF21 JUMP JUMPDEST SWAP3 POP POP PUSH1 0x40 DUP5 ADD CALLDATALOAD PUSH8 0xFFFFFFFFFFFFFFFF DUP2 GT ISZERO PUSH2 0xFDC JUMPI PUSH2 0xFDB PUSH2 0xC02 JUMP JUMPDEST JUMPDEST PUSH2 0xFE8 DUP7 DUP3 DUP8 ADD PUSH2 0xF21 JUMP JUMPDEST SWAP2 POP POP SWAP3 POP SWAP3 POP SWAP3 JUMP JUMPDEST PUSH2 0xFFB DUP2 PUSH2 0xD90 JUMP JUMPDEST DUP3 MSTORE POP POP JUMP JUMPDEST PUSH0 PUSH1 0x20 DUP3 ADD SWAP1 POP PUSH2 0x1014 PUSH0 DUP4 ADD DUP5 PUSH2 0xFF2 JUMP JUMPDEST SWAP3 SWAP2 POP POP JUMP JUMPDEST PUSH2 0x1023 DUP2 PUSH2 0xCE3 JUMP JUMPDEST DUP2 EQ PUSH2 0x102D JUMPI PUSH0 DUP1 REVERT JUMPDEST POP JUMP JUMPDEST PUSH0 DUP2 CALLDATALOAD SWAP1 POP PUSH2 0x103E DUP2 PUSH2 0x101A JUMP JUMPDEST SWAP3 SWAP2 POP POP JUMP JUMPDEST PUSH0 DUP1 PUSH1 0x40 DUP4 DUP6 SUB SLT ISZERO PUSH2 0x105A JUMPI PUSH2 0x1059 PUSH2 0xBFE JUMP JUMPDEST JUMPDEST PUSH0 PUSH2 0x1067 DUP6 DUP3 DUP7 ADD PUSH2 0xC25 JUMP JUMPDEST SWAP3 POP POP PUSH1 0x20 PUSH2 0x1078 DUP6 DUP3 DUP7 ADD PUSH2 0x1030 JUMP JUMPDEST SWAP2 POP POP SWAP3 POP SWAP3 SWAP1 POP JUMP JUMPDEST PUSH0 DUP2 SWAP1 POP SWAP2 SWAP1 POP JUMP JUMPDEST PUSH0 PUSH2 0x10A5 PUSH2 0x10A0 PUSH2 0x109B DUP5 PUSH2 0xD71 JUMP JUMPDEST PUSH2 0x1082 JUMP JUMPDEST PUSH2 0xD71 JUMP JUMPDEST SWAP1 POP SWAP2 SWAP1 POP JUMP JUMPDEST PUSH0 PUSH2 0x10B6 DUP3 PUSH2 0x108B JUMP JUMPDEST SWAP1 POP SWAP2 SWAP1 POP JUMP JUMPDEST PUSH0 PUSH2 0x10C7 DUP3 PUSH2 0x10AC JUMP JUMPDEST SWAP1 POP SWAP2 SWAP1 POP JUMP JUMPDEST PUSH2 0x10D7 DUP2 PUSH2 0x10BD JUMP JUMPDEST DUP3 MSTORE POP POP JUMP JUMPDEST PUSH0 PUSH1 0x20 DUP3 ADD SWAP1 POP PUSH2 0x10F0 PUSH0 DUP4 ADD DUP5 PUSH2 0x10CE JUMP JUMPDEST SWAP3 SWAP2 POP POP JUMP JUMPDEST PUSH0 PUSH1 0x20 DUP3 ADD SWAP1 POP PUSH2 0x1109 PUSH0 DUP4 ADD DUP5 PUSH2 0xCD4 JUMP JUMPDEST SWAP3 SWAP2 POP POP JUMP JUMPDEST PUSH0 PUSH1 0x20 DUP3 DUP5 SUB SLT ISZERO PUSH2 0x1124 JUMPI PUSH2 0x1123 PUSH2 0xBFE JUMP JUMPDEST JUMPDEST PUSH0 PUSH2 0x1131 DUP5 DUP3 DUP6 ADD PUSH2 0xDB7 JUMP JUMPDEST SWAP2 POP POP SWAP3 SWAP2 POP POP JUMP JUMPDEST PUSH0 PUSH2 0x1144 DUP3 PUSH2 0x10AC JUMP JUMPDEST SWAP1 POP SWAP2 SWAP1 POP JUMP JUMPDEST PUSH2 0x1154 DUP2 PUSH2 0x113A JUMP JUMPDEST DUP3 MSTORE POP POP JUMP JUMPDEST PUSH0 PUSH1 0x20 DUP3 ADD SWAP1 POP PUSH2 0x116D PUSH0 DUP4 ADD DUP5 PUSH2 0x114B JUMP JUMPDEST SWAP3 SWAP2 POP POP JUMP JUMPDEST PUSH32 0x4E487B7100000000000000000000000000000000000000000000000000000000 PUSH0 MSTORE PUSH1 0x22 PUSH1 0x4 MSTORE PUSH1 0x24 PUSH0 REVERT JUMPDEST PUSH0 PUSH1 0x2 DUP3 DIV SWAP1 POP PUSH1 0x1 DUP3 AND DUP1 PUSH2 0x11B7 JUMPI PUSH1 0x7F DUP3 AND SWAP2 POP JUMPDEST PUSH1 0x20 DUP3 LT DUP2 SUB PUSH2 0x11CA JUMPI PUSH2 0x11C9 PUSH2 0x1173 JUMP JUMPDEST JUMPDEST POP SWAP2 SWAP1 POP JUMP JUMPDEST PUSH32 0x416C726561647920657865637574656400000000000000000000000000000000 PUSH0 DUP3 ADD MSTORE POP JUMP JUMPDEST PUSH0 PUSH2 0x1204 PUSH1 0x10 DUP4 PUSH2 0xC6E JUMP JUMPDEST SWAP2 POP PUSH2 0x120F DUP3 PUSH2 0x11D0 JUMP JUMPDEST PUSH1 0x20 DUP3 ADD SWAP1 POP SWAP2 SWAP1 POP JUMP JUMPDEST PUSH0 PUSH1 0x20 DUP3 ADD SWAP1 POP DUP2 DUP2 SUB PUSH0 DUP4 ADD MSTORE PUSH2 0x1231 DUP2 PUSH2 0x11F8 JUMP JUMPDEST SWAP1 POP SWAP2 SWAP1 POP JUMP JUMPDEST PUSH32 0x4E6F7420656E6F75676820737570706F72740000000000000000000000000000 PUSH0 DUP3 ADD MSTORE POP JUMP JUMPDEST PUSH0 PUSH2 0x126C PUSH1 0x12 DUP4 PUSH2 0xC6E JUMP JUMPDEST SWAP2 POP PUSH2 0x1277 DUP3 PUSH2 0x1238 JUMP JUMPDEST PUSH1 0x20 DUP3 ADD SWAP1 POP SWAP2 SWAP1 POP JUMP JUMPDEST PUSH0 PUSH1 0x20 DUP3 ADD SWAP1 POP DUP2 DUP2 SUB PUSH0 DUP4 ADD MSTORE PUSH2 0x1299 DUP2 PUSH2 0x1260 JUMP JUMPDEST SWAP1 POP SWAP2 SWAP1 POP JUMP JUMPDEST PUSH0 DUP2 SWAP1 POP DUP2 PUSH0 MSTORE PUSH1 0x20 PUSH0 KECCAK256 SWAP1 POP SWAP2 SWAP1 POP JUMP JUMPDEST PUSH0 DUP2 SLOAD PUSH2 0x12BE DUP2 PUSH2 0x11A0 JUMP JUMPDEST PUSH2 0x12C8 DUP2 DUP7 PUSH2 0xC6E JUMP JUMPDEST SWAP5 POP PUSH1 0x1 DUP3 AND PUSH0 DUP2 EQ PUSH2 0x12E2 JUMPI PUSH1 0x1 DUP2 EQ PUSH2 0x12F8 JUMPI PUSH2 0x132A JUMP JUMPDEST PUSH1 0xFF NOT DUP4 AND DUP7 MSTORE DUP2 ISZERO ISZERO PUSH1 0x20 MUL DUP7 ADD SWAP4 POP PUSH2 0x132A JUMP JUMPDEST PUSH2 0x1301 DUP6 PUSH2 0x12A0 JUMP JUMPDEST PUSH0 JUMPDEST DUP4 DUP2 LT ISZERO PUSH2 0x1322 JUMPI DUP2 SLOAD DUP2 DUP10 ADD MSTORE PUSH1 0x1 DUP3 ADD SWAP2 POP PUSH1 0x20 DUP2 ADD SWAP1 POP PUSH2 0x1303 JUMP JUMPDEST DUP1 DUP9 ADD SWAP6 POP POP POP JUMPDEST POP POP POP SWAP3 SWAP2 POP POP JUMP JUMPDEST PUSH0 PUSH1 0x60 DUP3 ADD SWAP1 POP DUP2 DUP2 SUB PUSH0 DUP4 ADD MSTORE PUSH2 0x134B DUP2 DUP7 PUSH2 0x12B2 JUMP JUMPDEST SWAP1 POP DUP2 DUP2 SUB PUSH1 0x20 DUP4 ADD MSTORE PUSH2 0x135F DUP2 DUP6 PUSH2 0x12B2 JUMP JUMPDEST SWAP1 POP DUP2 DUP2 SUB PUSH1 0x40 DUP4 ADD MSTORE PUSH2 0x1373 DUP2 DUP5 PUSH2 0x12B2 JUMP JUMPDEST SWAP1 POP SWAP5 SWAP4 POP POP POP POP JUMP JUMPDEST PUSH32 0x4E487B7100000000000000000000000000000000000000000000000000000000 PUSH0 MSTORE PUSH1 0x11 PUSH1 0x4 MSTORE PUSH1 0x24 PUSH0 REVERT JUMPDEST PUSH0 PUSH2 0x13B4 DUP3 PUSH2 0xC06 JUMP JUMPDEST SWAP2 POP PUSH32 0xFFFFFFFFFFFFFFFFFFFFFFFFFFFFFFFFFFFFFFFFFFFFFFFFFFFFFFFFFFFFFFFF DUP3 SUB PUSH2 0x13E6 JUMPI PUSH2 0x13E5 PUSH2 0x137D JUMP JUMPDEST JUMPDEST PUSH1 0x1 DUP3 ADD SWAP1 POP SWAP2 SWAP1 POP JUMP JUMPDEST PUSH0 PUSH1 0x20 PUSH1 0x1F DUP4 ADD DIV SWAP1 POP SWAP2 SWAP1 POP JUMP JUMPDEST PUSH0 DUP3 DUP3 SHL SWAP1 POP SWAP3 SWAP2 POP POP JUMP JUMPDEST PUSH0 PUSH1 0x8 DUP4 MUL PUSH2 0x143B PUSH32 0xFFFFFFFFFFFFFFFFFFFFFFFFFFFFFFFFFFFFFFFFFFFFFFFFFFFFFFFFFFFFFFFF DUP3 PUSH2 0x1400 JUMP JUMPDEST PUSH2 0x1445 DUP7 DUP4 PUSH2 0x1400 JUMP JUMPDEST SWAP6 POP DUP1 NOT DUP5 AND SWAP4 POP DUP1 DUP7 AND DUP5 OR SWAP3 POP POP POP SWAP4 SWAP3 POP POP POP JUMP JUMPDEST PUSH0 PUSH2 0x1477 PUSH2 0x1472 PUSH2 0x146D DUP5 PUSH2 0xC06 JUMP JUMPDEST PUSH2 0x1082 JUMP JUMPDEST PUSH2 0xC06 JUMP JUMPDEST SWAP1 POP SWAP2 SWAP1 POP JUMP JUMPDEST PUSH0 DUP2 SWAP1 POP SWAP2 SWAP1 POP JUMP JUMPDEST PUSH2 0x1490 DUP4 PUSH2 0x145D JUMP JUMPDEST PUSH2 0x14A4 PUSH2 0x149C DUP3 PUSH2 0x147E JUMP JUMPDEST DUP5 DUP5 SLOAD PUSH2 0x140C JUMP JUMPDEST DUP3 SSTORE POP POP POP POP JUMP JUMPDEST PUSH0 SWAP1 JUMP JUMPDEST PUSH2 0x14B8 PUSH2 0x14AC JUMP JUMPDEST PUSH2 0x14C3 DUP2 DUP5 DUP5 PUSH2 0x1487 JUMP JUMPDEST POP POP POP JUMP JUMPDEST JUMPDEST DUP2 DUP2 LT ISZERO PUSH2 0x14E6 JUMPI PUSH2 0x14DB PUSH0 DUP3 PUSH2 0x14B0 JUMP JUMPDEST PUSH1 0x1 DUP2 ADD SWAP1 POP PUSH2 0x14C9 JUMP JUMPDEST POP POP JUMP JUMPDEST PUSH1 0x1F DUP3 GT ISZERO PUSH2 0x152B JUMPI PUSH2 0x14FC DUP2 PUSH2 0x12A0 JUMP JUMPDEST PUSH2 0x1505 DUP5 PUSH2 0x13F1 JUMP JUMPDEST DUP2 ADD PUSH1 0x20 DUP6 LT ISZERO PUSH2 0x1514 JUMPI DUP2 SWAP1 POP JUMPDEST PUSH2 0x1528 PUSH2 0x1520 DUP6 PUSH2 0x13F1 JUMP JUMPDEST DUP4 ADD DUP3 PUSH2 0x14C8 JUMP JUMPDEST POP POP JUMPDEST POP POP POP JUMP JUMPDEST PUSH0 DUP3 DUP3 SHR SWAP1 POP SWAP3 SWAP2 POP POP JUMP JUMPDEST PUSH0 PUSH2 0x154B PUSH0 NOT DUP5 PUSH1 0x8 MUL PUSH2 0x1530 JUMP JUMPDEST NOT DUP1 DUP4 AND SWAP2 POP POP SWAP3 SWAP2 POP POP JUMP JUMPDEST PUSH0 PUSH2 0x1563 DUP4 DUP4 PUSH2 0x153C JUMP JUMPDEST SWAP2 POP DUP3 PUSH1 0x2 MUL DUP3 OR SWAP1 POP SWAP3 SWAP2 POP POP JUMP JUMPDEST PUSH2 0x157C DUP3 PUSH2 0xC64 JUMP JUMPDEST PUSH8 0xFFFFFFFFFFFFFFFF DUP2 GT ISZERO PUSH2 0x1595 JUMPI PUSH2 0x1594 PUSH2 0xE2A JUMP JUMPDEST JUMPDEST PUSH2 0x159F DUP3 SLOAD PUSH2 0x11A0 JUMP JUMPDEST PUSH2 0x15AA DUP3 DUP3 DUP6 PUSH2 0x14EA JUMP JUMPDEST PUSH0 PUSH1 0x20 SWAP1 POP PUSH1 0x1F DUP4 GT PUSH1 0x1 DUP2 EQ PUSH2 0x15DB JUMPI PUSH0 DUP5 ISZERO PUSH2 0x15C9 JUMPI DUP3 DUP8 ADD MLOAD SWAP1 POP JUMPDEST PUSH2 0x15D3 DUP6 DUP3 PUSH2 0x1558 JUMP JUMPDEST DUP7 SSTORE POP PUSH2 0x163A JUMP JUMPDEST PUSH1 0x1F NOT DUP5 AND PUSH2 0x15E9 DUP7 PUSH2 0x12A0 JUMP JUMPDEST PUSH0 JUMPDEST DUP3 DUP2 LT ISZERO PUSH2 0x1610 JUMPI DUP5 DUP10 ADD MLOAD DUP3 SSTORE PUSH1 0x1 DUP3 ADD SWAP2 POP PUSH1 0x20 DUP6 ADD SWAP5 POP PUSH1 0x20 DUP2 ADD SWAP1 POP PUSH2 0x15EB JUMP JUMPDEST DUP7 DUP4 LT ISZERO PUSH2 0x162D JUMPI DUP5 DUP10 ADD MLOAD PUSH2 0x1629 PUSH1 0x1F DUP10 AND DUP3 PUSH2 0x153C JUMP JUMPDEST DUP4 SSTORE POP JUMPDEST PUSH1 0x1 PUSH1 0x2 DUP9 MUL ADD DUP9 SSTORE POP POP POP JUMPDEST POP POP POP POP POP POP JUMP JUMPDEST PUSH0 PUSH1 0x40 DUP3 ADD SWAP1 POP PUSH2 0x1655 PUSH0 DUP4 ADD DUP6 PUSH2 0xCD4 JUMP JUMPDEST DUP2 DUP2 SUB PUSH1 0x20 DUP4 ADD MSTORE PUSH2 0x1667 DUP2 DUP5 PUSH2 0xC9C JUMP JUMPDEST SWAP1 POP SWAP4 SWAP3 POP POP POP JUMP JUMPDEST PUSH32 0x416C726561647920766F74656400000000000000000000000000000000000000 PUSH0 DUP3 ADD MSTORE POP JUMP JUMPDEST PUSH0 PUSH2 0x16A4 PUSH1 0xD DUP4 PUSH2 0xC6E JUMP JUMPDEST SWAP2 POP PUSH2 0x16AF DUP3 PUSH2 0x1670 JUMP JUMPDEST PUSH1 0x20 DUP3 ADD SWAP1 POP SWAP2 SWAP1 POP JUMP JUMPDEST PUSH0 PUSH1 0x20 DUP3 ADD SWAP1 POP DUP2 DUP2 SUB PUSH0 DUP4 ADD MSTORE PUSH2 0x16D1 DUP2 PUSH2 0x1698 JUMP JUMPDEST SWAP1 POP SWAP2 SWAP1 POP JUMP JUMPDEST PUSH0 DUP2 MLOAD SWAP1 POP PUSH2 0x16E6 DUP2 PUSH2 0xC0F JUMP JUMPDEST SWAP3 SWAP2 POP POP JUMP JUMPDEST PUSH0 PUSH1 0x20 DUP3 DUP5 SUB SLT ISZERO PUSH2 0x1701 JUMPI PUSH2 0x1700 PUSH2 0xBFE JUMP JUMPDEST JUMPDEST PUSH0 PUSH2 0x170E DUP5 DUP3 DUP6 ADD PUSH2 0x16D8 JUMP JUMPDEST SWAP2 POP POP SWAP3 SWAP2 POP POP JUMP JUMPDEST PUSH32 0x696E6375666973616E74652062616C6C616E6365000000000000000000000000 PUSH0 DUP3 ADD MSTORE POP JUMP JUMPDEST PUSH0 PUSH2 0x174B PUSH1 0x14 DUP4 PUSH2 0xC6E JUMP JUMPDEST SWAP2 POP PUSH2 0x1756 DUP3 PUSH2 0x1717 JUMP JUMPDEST PUSH1 0x20 DUP3 ADD SWAP1 POP SWAP2 SWAP1 POP JUMP JUMPDEST PUSH0 PUSH1 0x20 DUP3 ADD SWAP1 POP DUP2 DUP2 SUB PUSH0 DUP4 ADD MSTORE PUSH2 0x1778 DUP2 PUSH2 0x173F JUMP JUMPDEST SWAP1 POP SWAP2 SWAP1 POP JUMP JUMPDEST PUSH0 PUSH2 0x1789 DUP3 PUSH2 0xC06 JUMP JUMPDEST SWAP2 POP PUSH2 0x1794 DUP4 PUSH2 0xC06 JUMP JUMPDEST SWAP3 POP DUP3 DUP3 ADD SWAP1 POP DUP1 DUP3 GT ISZERO PUSH2 0x17AC JUMPI PUSH2 0x17AB PUSH2 0x137D JUMP JUMPDEST JUMPDEST SWAP3 SWAP2 POP POP JUMP JUMPDEST PUSH0 PUSH1 0x60 DUP3 ADD SWAP1 POP PUSH2 0x17C5 PUSH0 DUP4 ADD DUP7 PUSH2 0xCD4 JUMP JUMPDEST PUSH2 0x17D2 PUSH1 0x20 DUP4 ADD DUP6 PUSH2 0xCEE JUMP JUMPDEST PUSH2 0x17DF PUSH1 0x40 DUP4 ADD DUP5 PUSH2 0xFF2 JUMP JUMPDEST SWAP5 SWAP4 POP POP POP POP JUMP INVALID LOG2 PUSH5 0x6970667358 0x22 SLT KECCAK256 0xA6 SWAP14 0xC6 LOG1 0xF9 TSTORE 0x28 SDIV ADDMOD 0xD DUP8 0x1F MCOPY CALLCODE CALLDATALOAD 0xA5 0xE9 0xCA 0xCB PUSH2 0xA472 0x4E MCOPY SWAP12 0xC SWAP12 0xED CALLER SGT SDIV GASLIMIT PUSH5 0x736F6C6343 STOP ADDMOD BYTE STOP CALLER "
		},
		"gasEstimates": {
			"creation": {
				"codeDepositCost": "1234600",
				"executionCost": "infinite",
				"totalCost": "infinite"
			},
			"external": {
				"createProposal(string,string,string)": "infinite",
				"executeProposal(uint256)": "infinite",
				"governanceToken()": "infinite",
				"hasVoted(uint256,address)": "3116",
				"nftFactory()": "infinite",
				"owner()": "2515",
				"proposalCount()": "2491",
				"proposals(uint256)": "infinite",
				"renounceOwnership()": "infinite",
				"transferOwnership(address)": "infinite",
				"vote(uint256,bool)": "infinite"
			}
		},
		"methodIdentifiers": {
			"createProposal(string,string,string)": "583cf379",
			"executeProposal(uint256)": "0d61b519",
			"governanceToken()": "f96dae0a",
			"hasVoted(uint256,address)": "43859632",
			"nftFactory()": "d63843cd",
			"owner()": "8da5cb5b",
			"proposalCount()": "da35c664",
			"proposals(uint256)": "013cf08b",
			"renounceOwnership()": "715018a6",
			"transferOwnership(address)": "f2fde38b",
			"vote(uint256,bool)": "c9d27afe"
		}
	},
	"abi": [
		{
			"inputs": [
				{
					"internalType": "address",
					"name": "_governanceToken",
					"type": "address"
				},
				{
					"internalType": "address",
					"name": "_nftFactory",
					"type": "address"
				}
			],
			"stateMutability": "nonpayable",
			"type": "constructor"
		},
		{
			"inputs": [
				{
					"internalType": "address",
					"name": "owner",
					"type": "address"
				}
			],
			"name": "OwnableInvalidOwner",
			"type": "error"
		},
		{
			"inputs": [
				{
					"internalType": "address",
					"name": "account",
					"type": "address"
				}
			],
			"name": "OwnableUnauthorizedAccount",
			"type": "error"
		},
		{
			"anonymous": false,
			"inputs": [
				{
					"indexed": true,
					"internalType": "address",
					"name": "previousOwner",
					"type": "address"
				},
				{
					"indexed": true,
					"internalType": "address",
					"name": "newOwner",
					"type": "address"
				}
			],
			"name": "OwnershipTransferred",
			"type": "event"
		},
		{
			"anonymous": false,
			"inputs": [
				{
					"indexed": false,
					"internalType": "uint256",
					"name": "proposalId",
					"type": "uint256"
				},
				{
					"indexed": false,
					"internalType": "string",
					"name": "assetSymbol",
					"type": "string"
				}
			],
			"name": "ProposalCreated",
			"type": "event"
		},
		{
			"anonymous": false,
			"inputs": [
				{
					"indexed": false,
					"internalType": "uint256",
					"name": "proposalId",
					"type": "uint256"
				}
			],
			"name": "ProposalExecuted",
			"type": "event"
		},
		{
			"anonymous": false,
			"inputs": [
				{
					"indexed": false,
					"internalType": "uint256",
					"name": "proposalId",
					"type": "uint256"
				},
				{
					"indexed": false,
					"internalType": "bool",
					"name": "support",
					"type": "bool"
				},
				{
					"indexed": false,
					"internalType": "address",
					"name": "voter",
					"type": "address"
				}
			],
			"name": "Voted",
			"type": "event"
		},
		{
			"inputs": [
				{
					"internalType": "string",
					"name": "assetSymbol",
					"type": "string"
				},
				{
					"internalType": "string",
					"name": "name",
					"type": "string"
				},
				{
					"internalType": "string",
					"name": "symbol",
					"type": "string"
				}
			],
			"name": "createProposal",
			"outputs": [],
			"stateMutability": "nonpayable",
			"type": "function"
		},
		{
			"inputs": [
				{
					"internalType": "uint256",
					"name": "proposalId",
					"type": "uint256"
				}
			],
			"name": "executeProposal",
			"outputs": [],
			"stateMutability": "nonpayable",
			"type": "function"
		},
		{
			"inputs": [],
			"name": "governanceToken",
			"outputs": [
				{
					"internalType": "contract IERC20",
					"name": "",
					"type": "address"
				}
			],
			"stateMutability": "view",
			"type": "function"
		},
		{
			"inputs": [
				{
					"internalType": "uint256",
					"name": "",
					"type": "uint256"
				},
				{
					"internalType": "address",
					"name": "",
					"type": "address"
				}
			],
			"name": "hasVoted",
			"outputs": [
				{
					"internalType": "bool",
					"name": "",
					"type": "bool"
				}
			],
			"stateMutability": "view",
			"type": "function"
		},
		{
			"inputs": [],
			"name": "nftFactory",
			"outputs": [
				{
					"internalType": "contract NFTFactory",
					"name": "",
					"type": "address"
				}
			],
			"stateMutability": "view",
			"type": "function"
		},
		{
			"inputs": [],
			"name": "owner",
			"outputs": [
				{
					"internalType": "address",
					"name": "",
					"type": "address"
				}
			],
			"stateMutability": "view",
			"type": "function"
		},
		{
			"inputs": [],
			"name": "proposalCount",
			"outputs": [
				{
					"internalType": "uint256",
					"name": "",
					"type": "uint256"
				}
			],
			"stateMutability": "view",
			"type": "function"
		},
		{
			"inputs": [
				{
					"internalType": "uint256",
					"name": "",
					"type": "uint256"
				}
			],
			"name": "proposals",
			"outputs": [
				{
					"internalType": "string",
					"name": "assetSymbol",
					"type": "string"
				},
				{
					"internalType": "string",
					"name": "name",
					"type": "string"
				},
				{
					"internalType": "string",
					"name": "symbol",
					"type": "string"
				},
				{
					"internalType": "uint256",
					"name": "votesFor",
					"type": "uint256"
				},
				{
					"internalType": "uint256",
					"name": "votesAgainst",
					"type": "uint256"
				},
				{
					"internalType": "bool",
					"name": "executed",
					"type": "bool"
				}
			],
			"stateMutability": "view",
			"type": "function"
		},
		{
			"inputs": [],
			"name": "renounceOwnership",
			"outputs": [],
			"stateMutability": "nonpayable",
			"type": "function"
		},
		{
			"inputs": [
				{
					"internalType": "address",
					"name": "newOwner",
					"type": "address"
				}
			],
			"name": "transferOwnership",
			"outputs": [],
			"stateMutability": "nonpayable",
			"type": "function"
		},
		{
			"inputs": [
				{
					"internalType": "uint256",
					"name": "proposalId",
					"type": "uint256"
				},
				{
					"internalType": "bool",
					"name": "support",
					"type": "bool"
				}
			],
			"name": "vote",
			"outputs": [],
			"stateMutability": "nonpayable",
			"type": "function"
		}
	]
}